{
  "address": "0x5306A095AEFfce3b39F93999e27213243400A04E",
  "abi": [
    {
      "inputs": [
        {
          "internalType": "address",
          "name": "_owner",
          "type": "address"
        }
      ],
      "stateMutability": "nonpayable",
      "type": "constructor"
    },
    {
      "inputs": [],
      "name": "collection",
      "outputs": [],
      "stateMutability": "payable",
      "type": "function"
    },
    {
      "inputs": [],
      "name": "getAmountToOwner",
      "outputs": [],
      "stateMutability": "nonpayable",
      "type": "function"
    },
    {
      "inputs": [],
      "name": "getBalance",
      "outputs": [
        {
          "internalType": "uint256",
          "name": "",
          "type": "uint256"
        }
      ],
      "stateMutability": "view",
      "type": "function"
    },
    {
      "inputs": [],
      "name": "getContractBalance",
      "outputs": [
        {
          "internalType": "uint256",
          "name": "",
          "type": "uint256"
        }
      ],
      "stateMutability": "view",
      "type": "function"
    },
    {
      "inputs": [],
      "name": "getOwner",
      "outputs": [
        {
          "internalType": "address",
          "name": "",
          "type": "address"
        }
      ],
      "stateMutability": "view",
      "type": "function"
    },
    {
      "inputs": [
        {
          "internalType": "address",
          "name": "_owner",
          "type": "address"
        }
      ],
      "name": "setOwner",
      "outputs": [],
      "stateMutability": "nonpayable",
      "type": "function"
    },
    {
      "inputs": [
        {
          "internalType": "address",
          "name": "",
          "type": "address"
        }
      ],
      "name": "userAmount",
      "outputs": [
        {
          "internalType": "uint256",
          "name": "",
          "type": "uint256"
        }
      ],
      "stateMutability": "view",
      "type": "function"
    }
  ],
  "transactionHash": "0xa07f43faa1d491f6c4cac40a12069a9882479b0d938a30d17e42828d028665ca",
  "args": [
    "0x824E496df215FC1fBd4B37fd90078D86839De1d6"
  ],
  "numDeployments": 2,
  "solcInputHash": "e932211c39621674e3242d2a07f56942",
  "bytecode": "0x6080604052670de0b6b3a764000060015534801561001c57600080fd5b50604051610888380380610888833981810160405281019061003e91906100e7565b806000806101000a81548173ffffffffffffffffffffffffffffffffffffffff021916908373ffffffffffffffffffffffffffffffffffffffff16021790555050610114565b600080fd5b600073ffffffffffffffffffffffffffffffffffffffff82169050919050565b60006100b482610089565b9050919050565b6100c4816100a9565b81146100cf57600080fd5b50565b6000815190506100e1816100bb565b92915050565b6000602082840312156100fd576100fc610084565b5b600061010b848285016100d2565b91505092915050565b610765806101236000396000f3fe6080604052600436106100705760003560e01c80636f9fb98a1161004e5780636f9fb98a146100e05780637de1e5361461010b578063893d20e814610115578063e1ad418e1461014057610070565b806312065fe01461007557806313af4035146100a05780632ec326bd146100c9575b600080fd5b34801561008157600080fd5b5061008a61017d565b60405161009791906104bf565b60405180910390f35b3480156100ac57600080fd5b506100c760048036038101906100c2919061053d565b6101c4565b005b3480156100d557600080fd5b506100de610295565b005b3480156100ec57600080fd5b506100f56103d2565b60405161010291906104bf565b60405180910390f35b6101136103da565b005b34801561012157600080fd5b5061012a610465565b6040516101379190610579565b60405180910390f35b34801561014c57600080fd5b506101676004803603810190610162919061053d565b61048e565b60405161017491906104bf565b60405180910390f35b6000600260003373ffffffffffffffffffffffffffffffffffffffff1673ffffffffffffffffffffffffffffffffffffffff16815260200190815260200160002054905090565b60008054906101000a900473ffffffffffffffffffffffffffffffffffffffff1673ffffffffffffffffffffffffffffffffffffffff163373ffffffffffffffffffffffffffffffffffffffff1614610252576040517f08c379a0000000000000000000000000000000000000000000000000000000008152600401610249906105f1565b60405180910390fd5b806000806101000a81548173ffffffffffffffffffffffffffffffffffffffff021916908373ffffffffffffffffffffffffffffffffffffffff16021790555050565b60008054906101000a900473ffffffffffffffffffffffffffffffffffffffff1673ffffffffffffffffffffffffffffffffffffffff163373ffffffffffffffffffffffffffffffffffffffff1614610323576040517f08c379a000000000000000000000000000000000000000000000000000000000815260040161031a906105f1565b60405180910390fd5b60003373ffffffffffffffffffffffffffffffffffffffff164760405161034990610642565b60006040518083038185875af1925050503d8060008114610386576040519150601f19603f3d011682016040523d82523d6000602084013e61038b565b606091505b50509050806103cf576040517f08c379a00000000000000000000000000000000000000000000000000000000081526004016103c6906106a3565b60405180910390fd5b50565b600047905090565b60015434101561041f576040517f08c379a00000000000000000000000000000000000000000000000000000000081526004016104169061070f565b60405180910390fd5b34600260003373ffffffffffffffffffffffffffffffffffffffff1673ffffffffffffffffffffffffffffffffffffffff16815260200190815260200160002081905550565b60008060009054906101000a900473ffffffffffffffffffffffffffffffffffffffff16905090565b60026020528060005260406000206000915090505481565b6000819050919050565b6104b9816104a6565b82525050565b60006020820190506104d460008301846104b0565b92915050565b600080fd5b600073ffffffffffffffffffffffffffffffffffffffff82169050919050565b600061050a826104df565b9050919050565b61051a816104ff565b811461052557600080fd5b50565b60008135905061053781610511565b92915050565b600060208284031215610553576105526104da565b5b600061056184828501610528565b91505092915050565b610573816104ff565b82525050565b600060208201905061058e600083018461056a565b92915050565b600082825260208201905092915050565b7f6e6f74206f776e65720000000000000000000000000000000000000000000000600082015250565b60006105db600983610594565b91506105e6826105a5565b602082019050919050565b6000602082019050818103600083015261060a816105ce565b9050919050565b600081905092915050565b50565b600061062c600083610611565b91506106378261061c565b600082019050919050565b600061064d8261061f565b9150819050919050565b7f676574416d6f756e74206661696c656400000000000000000000000000000000600082015250565b600061068d601083610594565b915061069882610657565b602082019050919050565b600060208201905081810360008301526106bc81610680565b9050919050565b7f6e6f74207472616e736666657220656e6f756768204554480000000000000000600082015250565b60006106f9601883610594565b9150610704826106c3565b602082019050919050565b60006020820190508181036000830152610728816106ec565b905091905056fea264697066735822122029472c8d9a91a5421009001b149ebe3609220b3fd717e06760fd16dae588022164736f6c634300081c0033",
  "devdoc": {
    "kind": "dev",
    "methods": {},
    "version": 1
  },
  "userdoc": {
    "kind": "user",
    "methods": {},
    "version": 1
  },
  "storageLayout": {
    "storage": [
      {
        "astId": 3,
        "contract": "contracts/test.sol:Test",
        "label": "owner",
        "offset": 0,
        "slot": "0",
        "type": "t_address"
      },
      {
        "astId": 10,
        "contract": "contracts/test.sol:Test",
        "label": "MIN_VALUE",
        "offset": 0,
        "slot": "1",
        "type": "t_uint256"
      },
      {
        "astId": 14,
        "contract": "contracts/test.sol:Test",
        "label": "userAmount",
        "offset": 0,
        "slot": "2",
        "type": "t_mapping(t_address,t_uint256)"
      }
    ],
    "types": {
      "t_address": {
        "encoding": "inplace",
        "label": "address",
        "numberOfBytes": "20"
      },
      "t_mapping(t_address,t_uint256)": {
        "encoding": "mapping",
        "key": "t_address",
        "label": "mapping(address => uint256)",
        "numberOfBytes": "32",
        "value": "t_uint256"
      },
      "t_uint256": {
        "encoding": "inplace",
        "label": "uint256",
        "numberOfBytes": "32"
      }
    }
  }
}