{
  "address": "0x5FbDB2315678afecb367f032d93F642f64180aa3",
  "abi": [
    {
      "inputs": [
        {
          "internalType": "address",
          "name": "_owner",
          "type": "address"
        }
      ],
      "stateMutability": "nonpayable",
      "type": "constructor"
    },
    {
      "anonymous": false,
      "inputs": [
        {
          "indexed": true,
          "internalType": "address",
          "name": "",
          "type": "address"
        },
        {
          "indexed": true,
          "internalType": "uint256",
          "name": "",
          "type": "uint256"
        }
      ],
      "name": "Log",
      "type": "event"
    },
    {
      "anonymous": false,
      "inputs": [
        {
          "indexed": true,
          "internalType": "address",
          "name": "from",
          "type": "address"
        },
        {
          "indexed": true,
          "internalType": "address",
          "name": "to",
          "type": "address"
        },
        {
          "indexed": false,
          "internalType": "uint256",
          "name": "value",
          "type": "uint256"
        }
      ],
      "name": "ReceiveEth",
      "type": "event"
    },
    {
      "anonymous": false,
      "inputs": [
        {
          "indexed": false,
          "internalType": "uint256",
          "name": "",
          "type": "uint256"
        },
        {
          "indexed": false,
          "internalType": "uint256",
          "name": "",
          "type": "uint256"
        }
      ],
      "name": "TestEvent",
      "type": "event"
    },
    {
      "inputs": [],
      "name": "collection",
      "outputs": [],
      "stateMutability": "payable",
      "type": "function"
    },
    {
      "inputs": [],
      "name": "getAmountToOwner",
      "outputs": [],
      "stateMutability": "nonpayable",
      "type": "function"
    },
    {
      "inputs": [],
      "name": "getBalance",
      "outputs": [
        {
          "internalType": "uint256",
          "name": "",
          "type": "uint256"
        }
      ],
      "stateMutability": "view",
      "type": "function"
    },
    {
      "inputs": [],
      "name": "getContractBalance",
      "outputs": [
        {
          "internalType": "uint256",
          "name": "",
          "type": "uint256"
        }
      ],
      "stateMutability": "view",
      "type": "function"
    },
    {
      "inputs": [],
      "name": "getOwner",
      "outputs": [
        {
          "internalType": "address",
          "name": "",
          "type": "address"
        }
      ],
      "stateMutability": "nonpayable",
      "type": "function"
    },
    {
      "inputs": [
        {
          "internalType": "address",
          "name": "_owner",
          "type": "address"
        }
      ],
      "name": "setOwner",
      "outputs": [],
      "stateMutability": "nonpayable",
      "type": "function"
    },
    {
      "inputs": [
        {
          "internalType": "address",
          "name": "",
          "type": "address"
        }
      ],
      "name": "userAmount",
      "outputs": [
        {
          "internalType": "uint256",
          "name": "",
          "type": "uint256"
        }
      ],
      "stateMutability": "view",
      "type": "function"
    }
  ],
  "transactionHash": "0xc9f89361852124fe315100ce43a8daf7a338275ad57619066e454ddc9fb5ca6b",
  "args": [
    "0xf39Fd6e51aad88F6F4ce6aB8827279cffFb92266"
  ],
  "numDeployments": 1,
  "solcInputHash": "c3594fb99e9c86b1a97dd75557ed48d5",
  "bytecode": "0x6080604052670de0b6b3a764000060015534801561001c57600080fd5b50604051610a3e380380610a3e833981810160405281019061003e9190610122565b7ff3ca124a697ba07e8c5e80bebcfcc48991fc16a63170e8a9206e30508960d003600960436040516100719291906101d9565b60405180910390a1806000806101000a81548173ffffffffffffffffffffffffffffffffffffffff021916908373ffffffffffffffffffffffffffffffffffffffff16021790555050610202565b600080fd5b600073ffffffffffffffffffffffffffffffffffffffff82169050919050565b60006100ef826100c4565b9050919050565b6100ff816100e4565b811461010a57600080fd5b50565b60008151905061011c816100f6565b92915050565b600060208284031215610138576101376100bf565b5b60006101468482850161010d565b91505092915050565b6000819050919050565b6000819050919050565b6000819050919050565b600061018861018361017e8461014f565b610163565b610159565b9050919050565b6101988161016d565b82525050565b6000819050919050565b60006101c36101be6101b98461019e565b610163565b610159565b9050919050565b6101d3816101a8565b82525050565b60006040820190506101ee600083018561018f565b6101fb60208301846101ca565b9392505050565b61082d806102116000396000f3fe6080604052600436106100705760003560e01c80636f9fb98a1161004e5780636f9fb98a146100e05780637de1e5361461010b578063893d20e814610115578063e1ad418e1461014057610070565b806312065fe01461007557806313af4035146100a05780632ec326bd146100c9575b600080fd5b34801561008157600080fd5b5061008a61017d565b6040516100979190610587565b60405180910390f35b3480156100ac57600080fd5b506100c760048036038101906100c29190610605565b6101c4565b005b3480156100d557600080fd5b506100de610295565b005b3480156100ec57600080fd5b506100f56103d2565b6040516101029190610587565b60405180910390f35b6101136103da565b005b34801561012157600080fd5b5061012a6104ca565b6040516101379190610641565b60405180910390f35b34801561014c57600080fd5b5061016760048036038101906101629190610605565b610556565b6040516101749190610587565b60405180910390f35b6000600260003373ffffffffffffffffffffffffffffffffffffffff1673ffffffffffffffffffffffffffffffffffffffff16815260200190815260200160002054905090565b60008054906101000a900473ffffffffffffffffffffffffffffffffffffffff1673ffffffffffffffffffffffffffffffffffffffff163373ffffffffffffffffffffffffffffffffffffffff1614610252576040517f08c379a0000000000000000000000000000000000000000000000000000000008152600401610249906106b9565b60405180910390fd5b806000806101000a81548173ffffffffffffffffffffffffffffffffffffffff021916908373ffffffffffffffffffffffffffffffffffffffff16021790555050565b60008054906101000a900473ffffffffffffffffffffffffffffffffffffffff1673ffffffffffffffffffffffffffffffffffffffff163373ffffffffffffffffffffffffffffffffffffffff1614610323576040517f08c379a000000000000000000000000000000000000000000000000000000000815260040161031a906106b9565b60405180910390fd5b60003373ffffffffffffffffffffffffffffffffffffffff16476040516103499061070a565b60006040518083038185875af1925050503d8060008114610386576040519150601f19603f3d011682016040523d82523d6000602084013e61038b565b606091505b50509050806103cf576040517f08c379a00000000000000000000000000000000000000000000000000000000081526004016103c69061076b565b60405180910390fd5b50565b600047905090565b60015434101561041f576040517f08c379a0000000000000000000000000000000000000000000000000000000008152600401610416906107d7565b60405180910390fd5b3073ffffffffffffffffffffffffffffffffffffffff163373ffffffffffffffffffffffffffffffffffffffff167f73368c7201e266652aa67265d724e0ee7abc56a10b95f0add800f4759e0999793460405161047c9190610587565b60405180910390a334600260003373ffffffffffffffffffffffffffffffffffffffff1673ffffffffffffffffffffffffffffffffffffffff16815260200190815260200160002081905550565b60004760008054906101000a900473ffffffffffffffffffffffffffffffffffffffff1673ffffffffffffffffffffffffffffffffffffffff167ff950957d2407bed19dc99b718b46b4ce6090c05589006dfb86fd22c34865b23e60405160405180910390a360008054906101000a900473ffffffffffffffffffffffffffffffffffffffff16905090565b60026020528060005260406000206000915090505481565b6000819050919050565b6105818161056e565b82525050565b600060208201905061059c6000830184610578565b92915050565b600080fd5b600073ffffffffffffffffffffffffffffffffffffffff82169050919050565b60006105d2826105a7565b9050919050565b6105e2816105c7565b81146105ed57600080fd5b50565b6000813590506105ff816105d9565b92915050565b60006020828403121561061b5761061a6105a2565b5b6000610629848285016105f0565b91505092915050565b61063b816105c7565b82525050565b60006020820190506106566000830184610632565b92915050565b600082825260208201905092915050565b7f6e6f74206f776e65720000000000000000000000000000000000000000000000600082015250565b60006106a360098361065c565b91506106ae8261066d565b602082019050919050565b600060208201905081810360008301526106d281610696565b9050919050565b600081905092915050565b50565b60006106f46000836106d9565b91506106ff826106e4565b600082019050919050565b6000610715826106e7565b9150819050919050565b7f676574416d6f756e74206661696c656400000000000000000000000000000000600082015250565b600061075560108361065c565b91506107608261071f565b602082019050919050565b6000602082019050818103600083015261078481610748565b9050919050565b7f6e6f74207472616e736666657220656e6f756768204554480000000000000000600082015250565b60006107c160188361065c565b91506107cc8261078b565b602082019050919050565b600060208201905081810360008301526107f0816107b4565b905091905056fea264697066735822122081248cbcd5c34ba4e1becfec452051c7164dcd201b074e6abfa5daaf9bab653b64736f6c634300081c0033",
  "devdoc": {
    "kind": "dev",
    "methods": {},
    "version": 1
  },
  "userdoc": {
    "kind": "user",
    "methods": {},
    "version": 1
  },
  "storageLayout": {
    "storage": [
      {
        "astId": 3,
        "contract": "contracts/test.sol:Test",
        "label": "owner",
        "offset": 0,
        "slot": "0",
        "type": "t_address"
      },
      {
        "astId": 10,
        "contract": "contracts/test.sol:Test",
        "label": "MIN_VALUE",
        "offset": 0,
        "slot": "1",
        "type": "t_uint256"
      },
      {
        "astId": 14,
        "contract": "contracts/test.sol:Test",
        "label": "userAmount",
        "offset": 0,
        "slot": "2",
        "type": "t_mapping(t_address,t_uint256)"
      }
    ],
    "types": {
      "t_address": {
        "encoding": "inplace",
        "label": "address",
        "numberOfBytes": "20"
      },
      "t_mapping(t_address,t_uint256)": {
        "encoding": "mapping",
        "key": "t_address",
        "label": "mapping(address => uint256)",
        "numberOfBytes": "32",
        "value": "t_uint256"
      },
      "t_uint256": {
        "encoding": "inplace",
        "label": "uint256",
        "numberOfBytes": "32"
      }
    }
  }
}