{
  "address": "0x6af93f5808cf4a1c3df1ff23dfD484E21dF3E665",
  "abi": [
    {
      "inputs": [],
      "stateMutability": "nonpayable",
      "type": "constructor"
    },
    {
      "inputs": [],
      "name": "ECDSAInvalidSignature",
      "type": "error"
    },
    {
      "inputs": [
        {
          "internalType": "uint256",
          "name": "length",
          "type": "uint256"
        }
      ],
      "name": "ECDSAInvalidSignatureLength",
      "type": "error"
    },
    {
      "inputs": [
        {
          "internalType": "bytes32",
          "name": "s",
          "type": "bytes32"
        }
      ],
      "name": "ECDSAInvalidSignatureS",
      "type": "error"
    },
    {
      "inputs": [
        {
          "internalType": "address",
          "name": "spender",
          "type": "address"
        },
        {
          "internalType": "uint256",
          "name": "allowance",
          "type": "uint256"
        },
        {
          "internalType": "uint256",
          "name": "needed",
          "type": "uint256"
        }
      ],
      "name": "ERC20InsufficientAllowance",
      "type": "error"
    },
    {
      "inputs": [
        {
          "internalType": "address",
          "name": "sender",
          "type": "address"
        },
        {
          "internalType": "uint256",
          "name": "balance",
          "type": "uint256"
        },
        {
          "internalType": "uint256",
          "name": "needed",
          "type": "uint256"
        }
      ],
      "name": "ERC20InsufficientBalance",
      "type": "error"
    },
    {
      "inputs": [
        {
          "internalType": "address",
          "name": "approver",
          "type": "address"
        }
      ],
      "name": "ERC20InvalidApprover",
      "type": "error"
    },
    {
      "inputs": [
        {
          "internalType": "address",
          "name": "receiver",
          "type": "address"
        }
      ],
      "name": "ERC20InvalidReceiver",
      "type": "error"
    },
    {
      "inputs": [
        {
          "internalType": "address",
          "name": "sender",
          "type": "address"
        }
      ],
      "name": "ERC20InvalidSender",
      "type": "error"
    },
    {
      "inputs": [
        {
          "internalType": "address",
          "name": "spender",
          "type": "address"
        }
      ],
      "name": "ERC20InvalidSpender",
      "type": "error"
    },
    {
      "inputs": [
        {
          "internalType": "uint256",
          "name": "deadline",
          "type": "uint256"
        }
      ],
      "name": "ERC2612ExpiredSignature",
      "type": "error"
    },
    {
      "inputs": [
        {
          "internalType": "address",
          "name": "signer",
          "type": "address"
        },
        {
          "internalType": "address",
          "name": "owner",
          "type": "address"
        }
      ],
      "name": "ERC2612InvalidSigner",
      "type": "error"
    },
    {
      "inputs": [
        {
          "internalType": "uint256",
          "name": "maxLoan",
          "type": "uint256"
        }
      ],
      "name": "ERC3156ExceededMaxLoan",
      "type": "error"
    },
    {
      "inputs": [
        {
          "internalType": "address",
          "name": "receiver",
          "type": "address"
        }
      ],
      "name": "ERC3156InvalidReceiver",
      "type": "error"
    },
    {
      "inputs": [
        {
          "internalType": "address",
          "name": "token",
          "type": "address"
        }
      ],
      "name": "ERC3156UnsupportedToken",
      "type": "error"
    },
    {
      "inputs": [],
      "name": "EnforcedPause",
      "type": "error"
    },
    {
      "inputs": [],
      "name": "ExpectedPause",
      "type": "error"
    },
    {
      "inputs": [
        {
          "internalType": "address",
          "name": "account",
          "type": "address"
        },
        {
          "internalType": "uint256",
          "name": "currentNonce",
          "type": "uint256"
        }
      ],
      "name": "InvalidAccountNonce",
      "type": "error"
    },
    {
      "inputs": [],
      "name": "InvalidShortString",
      "type": "error"
    },
    {
      "inputs": [
        {
          "internalType": "address",
          "name": "owner",
          "type": "address"
        }
      ],
      "name": "OwnableInvalidOwner",
      "type": "error"
    },
    {
      "inputs": [
        {
          "internalType": "address",
          "name": "account",
          "type": "address"
        }
      ],
      "name": "OwnableUnauthorizedAccount",
      "type": "error"
    },
    {
      "inputs": [
        {
          "internalType": "string",
          "name": "str",
          "type": "string"
        }
      ],
      "name": "StringTooLong",
      "type": "error"
    },
    {
      "anonymous": false,
      "inputs": [
        {
          "indexed": true,
          "internalType": "address",
          "name": "owner",
          "type": "address"
        },
        {
          "indexed": true,
          "internalType": "address",
          "name": "spender",
          "type": "address"
        },
        {
          "indexed": false,
          "internalType": "uint256",
          "name": "value",
          "type": "uint256"
        }
      ],
      "name": "Approval",
      "type": "event"
    },
    {
      "anonymous": false,
      "inputs": [],
      "name": "EIP712DomainChanged",
      "type": "event"
    },
    {
      "anonymous": false,
      "inputs": [
        {
          "indexed": true,
          "internalType": "address",
          "name": "previousOwner",
          "type": "address"
        },
        {
          "indexed": true,
          "internalType": "address",
          "name": "newOwner",
          "type": "address"
        }
      ],
      "name": "OwnershipTransferred",
      "type": "event"
    },
    {
      "anonymous": false,
      "inputs": [
        {
          "indexed": false,
          "internalType": "address",
          "name": "account",
          "type": "address"
        }
      ],
      "name": "Paused",
      "type": "event"
    },
    {
      "anonymous": false,
      "inputs": [
        {
          "indexed": true,
          "internalType": "address",
          "name": "from",
          "type": "address"
        },
        {
          "indexed": true,
          "internalType": "address",
          "name": "to",
          "type": "address"
        },
        {
          "indexed": false,
          "internalType": "uint256",
          "name": "value",
          "type": "uint256"
        }
      ],
      "name": "Transfer",
      "type": "event"
    },
    {
      "anonymous": false,
      "inputs": [
        {
          "indexed": false,
          "internalType": "address",
          "name": "account",
          "type": "address"
        }
      ],
      "name": "Unpaused",
      "type": "event"
    },
    {
      "inputs": [],
      "name": "DOMAIN_SEPARATOR",
      "outputs": [
        {
          "internalType": "bytes32",
          "name": "",
          "type": "bytes32"
        }
      ],
      "stateMutability": "view",
      "type": "function"
    },
    {
      "inputs": [],
      "name": "MIN_ETH",
      "outputs": [
        {
          "internalType": "uint256",
          "name": "",
          "type": "uint256"
        }
      ],
      "stateMutability": "view",
      "type": "function"
    },
    {
      "inputs": [],
      "name": "NT_PRICE",
      "outputs": [
        {
          "internalType": "uint256",
          "name": "",
          "type": "uint256"
        }
      ],
      "stateMutability": "view",
      "type": "function"
    },
    {
      "inputs": [
        {
          "internalType": "address",
          "name": "owner",
          "type": "address"
        },
        {
          "internalType": "address",
          "name": "spender",
          "type": "address"
        }
      ],
      "name": "allowance",
      "outputs": [
        {
          "internalType": "uint256",
          "name": "",
          "type": "uint256"
        }
      ],
      "stateMutability": "view",
      "type": "function"
    },
    {
      "inputs": [
        {
          "internalType": "address",
          "name": "spender",
          "type": "address"
        },
        {
          "internalType": "uint256",
          "name": "value",
          "type": "uint256"
        }
      ],
      "name": "approve",
      "outputs": [
        {
          "internalType": "bool",
          "name": "",
          "type": "bool"
        }
      ],
      "stateMutability": "nonpayable",
      "type": "function"
    },
    {
      "inputs": [
        {
          "internalType": "address",
          "name": "account",
          "type": "address"
        }
      ],
      "name": "balanceOf",
      "outputs": [
        {
          "internalType": "uint256",
          "name": "",
          "type": "uint256"
        }
      ],
      "stateMutability": "view",
      "type": "function"
    },
    {
      "inputs": [
        {
          "internalType": "uint256",
          "name": "value",
          "type": "uint256"
        }
      ],
      "name": "burn",
      "outputs": [],
      "stateMutability": "nonpayable",
      "type": "function"
    },
    {
      "inputs": [
        {
          "internalType": "address",
          "name": "account",
          "type": "address"
        },
        {
          "internalType": "uint256",
          "name": "value",
          "type": "uint256"
        }
      ],
      "name": "burnFrom",
      "outputs": [],
      "stateMutability": "nonpayable",
      "type": "function"
    },
    {
      "inputs": [],
      "name": "decimals",
      "outputs": [
        {
          "internalType": "uint8",
          "name": "",
          "type": "uint8"
        }
      ],
      "stateMutability": "view",
      "type": "function"
    },
    {
      "inputs": [],
      "name": "eip712Domain",
      "outputs": [
        {
          "internalType": "bytes1",
          "name": "fields",
          "type": "bytes1"
        },
        {
          "internalType": "string",
          "name": "name",
          "type": "string"
        },
        {
          "internalType": "string",
          "name": "version",
          "type": "string"
        },
        {
          "internalType": "uint256",
          "name": "chainId",
          "type": "uint256"
        },
        {
          "internalType": "address",
          "name": "verifyingContract",
          "type": "address"
        },
        {
          "internalType": "bytes32",
          "name": "salt",
          "type": "bytes32"
        },
        {
          "internalType": "uint256[]",
          "name": "extensions",
          "type": "uint256[]"
        }
      ],
      "stateMutability": "view",
      "type": "function"
    },
    {
      "inputs": [
        {
          "internalType": "address",
          "name": "token",
          "type": "address"
        },
        {
          "internalType": "uint256",
          "name": "value",
          "type": "uint256"
        }
      ],
      "name": "flashFee",
      "outputs": [
        {
          "internalType": "uint256",
          "name": "",
          "type": "uint256"
        }
      ],
      "stateMutability": "view",
      "type": "function"
    },
    {
      "inputs": [
        {
          "internalType": "contract IERC3156FlashBorrower",
          "name": "receiver",
          "type": "address"
        },
        {
          "internalType": "address",
          "name": "token",
          "type": "address"
        },
        {
          "internalType": "uint256",
          "name": "value",
          "type": "uint256"
        },
        {
          "internalType": "bytes",
          "name": "data",
          "type": "bytes"
        }
      ],
      "name": "flashLoan",
      "outputs": [
        {
          "internalType": "bool",
          "name": "",
          "type": "bool"
        }
      ],
      "stateMutability": "nonpayable",
      "type": "function"
    },
    {
      "inputs": [
        {
          "internalType": "uint256",
          "name": "_amount",
          "type": "uint256"
        }
      ],
      "name": "getEthNumber",
      "outputs": [
        {
          "internalType": "uint256",
          "name": "",
          "type": "uint256"
        }
      ],
      "stateMutability": "pure",
      "type": "function"
    },
    {
      "inputs": [
        {
          "internalType": "address",
          "name": "token",
          "type": "address"
        }
      ],
      "name": "maxFlashLoan",
      "outputs": [
        {
          "internalType": "uint256",
          "name": "",
          "type": "uint256"
        }
      ],
      "stateMutability": "view",
      "type": "function"
    },
    {
      "inputs": [
        {
          "internalType": "uint256",
          "name": "_amount",
          "type": "uint256"
        }
      ],
      "name": "mintToken",
      "outputs": [],
      "stateMutability": "payable",
      "type": "function"
    },
    {
      "inputs": [],
      "name": "name",
      "outputs": [
        {
          "internalType": "string",
          "name": "",
          "type": "string"
        }
      ],
      "stateMutability": "view",
      "type": "function"
    },
    {
      "inputs": [
        {
          "internalType": "address",
          "name": "owner",
          "type": "address"
        }
      ],
      "name": "nonces",
      "outputs": [
        {
          "internalType": "uint256",
          "name": "",
          "type": "uint256"
        }
      ],
      "stateMutability": "view",
      "type": "function"
    },
    {
      "inputs": [],
      "name": "owner",
      "outputs": [
        {
          "internalType": "address",
          "name": "",
          "type": "address"
        }
      ],
      "stateMutability": "view",
      "type": "function"
    },
    {
      "inputs": [],
      "name": "pause",
      "outputs": [],
      "stateMutability": "nonpayable",
      "type": "function"
    },
    {
      "inputs": [],
      "name": "paused",
      "outputs": [
        {
          "internalType": "bool",
          "name": "",
          "type": "bool"
        }
      ],
      "stateMutability": "view",
      "type": "function"
    },
    {
      "inputs": [
        {
          "internalType": "address",
          "name": "owner",
          "type": "address"
        },
        {
          "internalType": "address",
          "name": "spender",
          "type": "address"
        },
        {
          "internalType": "uint256",
          "name": "value",
          "type": "uint256"
        },
        {
          "internalType": "uint256",
          "name": "deadline",
          "type": "uint256"
        },
        {
          "internalType": "uint8",
          "name": "v",
          "type": "uint8"
        },
        {
          "internalType": "bytes32",
          "name": "r",
          "type": "bytes32"
        },
        {
          "internalType": "bytes32",
          "name": "s",
          "type": "bytes32"
        }
      ],
      "name": "permit",
      "outputs": [],
      "stateMutability": "nonpayable",
      "type": "function"
    },
    {
      "inputs": [],
      "name": "renounceOwnership",
      "outputs": [],
      "stateMutability": "nonpayable",
      "type": "function"
    },
    {
      "inputs": [],
      "name": "symbol",
      "outputs": [
        {
          "internalType": "string",
          "name": "",
          "type": "string"
        }
      ],
      "stateMutability": "view",
      "type": "function"
    },
    {
      "inputs": [],
      "name": "totalSupply",
      "outputs": [
        {
          "internalType": "uint256",
          "name": "",
          "type": "uint256"
        }
      ],
      "stateMutability": "view",
      "type": "function"
    },
    {
      "inputs": [
        {
          "internalType": "address",
          "name": "to",
          "type": "address"
        },
        {
          "internalType": "uint256",
          "name": "value",
          "type": "uint256"
        }
      ],
      "name": "transfer",
      "outputs": [
        {
          "internalType": "bool",
          "name": "",
          "type": "bool"
        }
      ],
      "stateMutability": "nonpayable",
      "type": "function"
    },
    {
      "inputs": [
        {
          "internalType": "address",
          "name": "from",
          "type": "address"
        },
        {
          "internalType": "address",
          "name": "to",
          "type": "address"
        },
        {
          "internalType": "uint256",
          "name": "value",
          "type": "uint256"
        }
      ],
      "name": "transferFrom",
      "outputs": [
        {
          "internalType": "bool",
          "name": "",
          "type": "bool"
        }
      ],
      "stateMutability": "nonpayable",
      "type": "function"
    },
    {
      "inputs": [
        {
          "internalType": "address",
          "name": "newOwner",
          "type": "address"
        }
      ],
      "name": "transferOwnership",
      "outputs": [],
      "stateMutability": "nonpayable",
      "type": "function"
    },
    {
      "inputs": [],
      "name": "unpause",
      "outputs": [],
      "stateMutability": "nonpayable",
      "type": "function"
    }
  ],
  "transactionHash": "0x1cf677755195bc014cd786d05a8be998bd0e2760bdaa71c75e14fea063875e38",
  "args": [],
  "numDeployments": 1,
  "solcInputHash": "70c3fde97d0c5c93affe20008abcba23",
  "bytecode": "0x61016060405234801561001157600080fd5b506040518060400160405280600781526020017f4d79546f6b656e00000000000000000000000000000000000000000000000000815250806040518060400160405280600181526020017f3100000000000000000000000000000000000000000000000000000000000000815250336040518060400160405280600281526020017f4d540000000000000000000000000000000000000000000000000000000000008152506040518060400160405280600281526020017f4d5400000000000000000000000000000000000000000000000000000000000081525081600390816100fb919061068e565b50806004908161010b919061068e565b5050506000600560006101000a81548160ff021916908315150217905550600073ffffffffffffffffffffffffffffffffffffffff168173ffffffffffffffffffffffffffffffffffffffff160361019b5760006040517f1e4fbdf700000000000000000000000000000000000000000000000000000000815260040161019291906107a1565b60405180910390fd5b6101aa8161025b60201b60201c565b506101bf60068361032160201b90919060201c565b61012081815250506101db60078261032160201b90919060201c565b6101408181525050818051906020012060e08181525050808051906020012061010081815250504660a0818152505061021861037160201b60201c565b608081815250503073ffffffffffffffffffffffffffffffffffffffff1660c08173ffffffffffffffffffffffffffffffffffffffff1681525050505050610975565b6000600560019054906101000a900473ffffffffffffffffffffffffffffffffffffffff16905081600560016101000a81548173ffffffffffffffffffffffffffffffffffffffff021916908373ffffffffffffffffffffffffffffffffffffffff1602179055508173ffffffffffffffffffffffffffffffffffffffff168173ffffffffffffffffffffffffffffffffffffffff167f8be0079c531659141344cd1fd0a4f28419497f9722a3daafe3b4186f6b6457e060405160405180910390a35050565b60006020835110156103435761033c836103cc60201b60201c565b905061036b565b826103538361043460201b60201c565b6000019081610362919061068e565b5060ff60001b90505b92915050565b60007f8b73c3c69bb8fe3d512ecc4cf759cc79239f7b179b0ffacaa9a75d522b39400f60e0516101005146306040516020016103b19594939291906107e4565b60405160208183030381529060405280519060200120905090565b600080829050601f8151111561041957826040517f305a27a900000000000000000000000000000000000000000000000000000000815260040161041091906108bc565b60405180910390fd5b8051816104259061090e565b60001c1760001b915050919050565b6000819050919050565b600081519050919050565b7f4e487b7100000000000000000000000000000000000000000000000000000000600052604160045260246000fd5b7f4e487b7100000000000000000000000000000000000000000000000000000000600052602260045260246000fd5b600060028204905060018216806104bf57607f821691505b6020821081036104d2576104d1610478565b5b50919050565b60008190508160005260206000209050919050565b60006020601f8301049050919050565b600082821b905092915050565b60006008830261053a7fffffffffffffffffffffffffffffffffffffffffffffffffffffffffffffffff826104fd565b61054486836104fd565b95508019841693508086168417925050509392505050565b6000819050919050565b6000819050919050565b600061058b6105866105818461055c565b610566565b61055c565b9050919050565b6000819050919050565b6105a583610570565b6105b96105b182610592565b84845461050a565b825550505050565b600090565b6105ce6105c1565b6105d981848461059c565b505050565b5b818110156105fd576105f26000826105c6565b6001810190506105df565b5050565b601f82111561064257610613816104d8565b61061c846104ed565b8101602085101561062b578190505b61063f610637856104ed565b8301826105de565b50505b505050565b600082821c905092915050565b600061066560001984600802610647565b1980831691505092915050565b600061067e8383610654565b9150826002028217905092915050565b6106978261043e565b67ffffffffffffffff8111156106b0576106af610449565b5b6106ba82546104a7565b6106c5828285610601565b600060209050601f8311600181146106f857600084156106e6578287015190505b6106f08582610672565b865550610758565b601f198416610706866104d8565b60005b8281101561072e57848901518255600182019150602085019450602081019050610709565b8683101561074b5784890151610747601f891682610654565b8355505b6001600288020188555050505b505050505050565b600073ffffffffffffffffffffffffffffffffffffffff82169050919050565b600061078b82610760565b9050919050565b61079b81610780565b82525050565b60006020820190506107b66000830184610792565b92915050565b6000819050919050565b6107cf816107bc565b82525050565b6107de8161055c565b82525050565b600060a0820190506107f960008301886107c6565b61080660208301876107c6565b61081360408301866107c6565b61082060608301856107d5565b61082d6080830184610792565b9695505050505050565b600082825260208201905092915050565b60005b8381101561086657808201518184015260208101905061084b565b60008484015250505050565b6000601f19601f8301169050919050565b600061088e8261043e565b6108988185610837565b93506108a8818560208601610848565b6108b181610872565b840191505092915050565b600060208201905081810360008301526108d68184610883565b905092915050565b600081519050919050565b6000819050602082019050919050565b600061090582516107bc565b80915050919050565b6000610919826108de565b82610923846108e9565b905061092e816108f9565b9250602082101561096e576109697fffffffffffffffffffffffffffffffffffffffffffffffffffffffffffffffff836020036008026104fd565b831692505b5050919050565b60805160a05160c05160e051610100516101205161014051612d236109cf600039600061168101526000611646015260006119dc015260006119bb015260006112250152600061127b015260006112a40152612d236000f3fe6080604052600436106101b75760003560e01c80637ccce684116100ec578063c634d0321161008a578063d586b74c11610064578063d586b74c14610609578063d9d98ce414610634578063dd62ed3e14610671578063f2fde38b146106ae576101b7565b8063c634d03214610587578063cd59ed1e146105a3578063d505accf146105e0576101b7565b806384b0196e116100c657806384b0196e146104c35780638da5cb5b146104f457806395d89b411461051f578063a9059cbb1461054a576101b7565b80637ccce684146104445780637ecebe001461046f5780638456cb59146104ac576101b7565b806342966c6811610159578063613255ab11610133578063613255ab1461038a57806370a08231146103c7578063715018a61461040457806379cc67901461041b576101b7565b806342966c68146102f95780635c975abb146103225780635cffe9de1461034d576101b7565b806323b872dd1161019557806323b872dd1461024f578063313ce5671461028c5780633644e515146102b75780633f4ba83a146102e2576101b7565b806306fdde03146101bc578063095ea7b3146101e757806318160ddd14610224575b600080fd5b3480156101c857600080fd5b506101d16106d7565b6040516101de9190612187565b60405180910390f35b3480156101f357600080fd5b5061020e60048036038101906102099190612247565b610769565b60405161021b91906122a2565b60405180910390f35b34801561023057600080fd5b5061023961078c565b60405161024691906122cc565b60405180910390f35b34801561025b57600080fd5b50610276600480360381019061027191906122e7565b610796565b60405161028391906122a2565b60405180910390f35b34801561029857600080fd5b506102a16107c5565b6040516102ae9190612356565b60405180910390f35b3480156102c357600080fd5b506102cc6107ce565b6040516102d9919061238a565b60405180910390f35b3480156102ee57600080fd5b506102f76107dd565b005b34801561030557600080fd5b50610320600480360381019061031b91906123a5565b6107ef565b005b34801561032e57600080fd5b50610337610803565b60405161034491906122a2565b60405180910390f35b34801561035957600080fd5b50610374600480360381019061036f9190612475565b61081a565b60405161038191906122a2565b60405180910390f35b34801561039657600080fd5b506103b160048036038101906103ac91906124fd565b610a17565b6040516103be91906122cc565b60405180910390f35b3480156103d357600080fd5b506103ee60048036038101906103e991906124fd565b610a8e565b6040516103fb91906122cc565b60405180910390f35b34801561041057600080fd5b50610419610ad6565b005b34801561042757600080fd5b50610442600480360381019061043d9190612247565b610aea565b005b34801561045057600080fd5b50610459610b0a565b60405161046691906122cc565b60405180910390f35b34801561047b57600080fd5b50610496600480360381019061049191906124fd565b610b15565b6040516104a391906122cc565b60405180910390f35b3480156104b857600080fd5b506104c1610b27565b005b3480156104cf57600080fd5b506104d8610b39565b6040516104eb9796959493929190612632565b60405180910390f35b34801561050057600080fd5b50610509610be3565b60405161051691906126b6565b60405180910390f35b34801561052b57600080fd5b50610534610c0d565b6040516105419190612187565b60405180910390f35b34801561055657600080fd5b50610571600480360381019061056c9190612247565b610c9f565b60405161057e91906122a2565b60405180910390f35b6105a1600480360381019061059c91906123a5565b610cc2565b005b3480156105af57600080fd5b506105ca60048036038101906105c591906123a5565b610ccf565b6040516105d791906122cc565b60405180910390f35b3480156105ec57600080fd5b5061060760048036038101906106029190612729565b610d9a565b005b34801561061557600080fd5b5061061e610ee2565b60405161062b91906122cc565b60405180910390f35b34801561064057600080fd5b5061065b60048036038101906106569190612247565b610eed565b60405161066891906122cc565b60405180910390f35b34801561067d57600080fd5b50610698600480360381019061069391906127cb565b610f71565b6040516106a591906122cc565b60405180910390f35b3480156106ba57600080fd5b506106d560048036038101906106d091906124fd565b610ff8565b005b6060600380546106e69061283a565b80601f01602080910402602001604051908101604052809291908181526020018280546107129061283a565b801561075f5780601f106107345761010080835404028352916020019161075f565b820191906000526020600020905b81548152906001019060200180831161074257829003601f168201915b5050505050905090565b60008061077461107e565b9050610781818585611086565b600191505092915050565b6000600254905090565b6000806107a161107e565b90506107ae858285611098565b6107b985858561112d565b60019150509392505050565b60006012905090565b60006107d8611221565b905090565b6107e56112d8565b6107ed61135f565b565b6108006107fa61107e565b826113c2565b50565b6000600560009054906101000a900460ff16905090565b60008061082686610a17565b90508085111561086d57806040517ffd9a760900000000000000000000000000000000000000000000000000000000815260040161086491906122cc565b60405180910390fd5b60006108798787610eed565b90506108858887611444565b7f439148f0bbc682ca079e46d6e2c2f0c1e3b820f1a291b069d8882abf8cf18dd98873ffffffffffffffffffffffffffffffffffffffff166323e30c8b6108ca61107e565b8a8a868b8b6040518763ffffffff1660e01b81526004016108f0969594939291906128b8565b6020604051808303816000875af115801561090f573d6000803e3d6000fd5b505050506040513d601f19601f820116820180604052508101906109339190612929565b1461097557876040517f678c5b0000000000000000000000000000000000000000000000000000000000815260040161096c91906126b6565b60405180910390fd5b600061097f6114c6565b90506109978930848a6109929190612985565b611098565b60008214806109d25750600073ffffffffffffffffffffffffffffffffffffffff168173ffffffffffffffffffffffffffffffffffffffff16145b156109f1576109ec8983896109e79190612985565b6113c2565b610a07565b6109fb89886113c2565b610a0689828461112d565b5b6001935050505095945050505050565b60003073ffffffffffffffffffffffffffffffffffffffff168273ffffffffffffffffffffffffffffffffffffffff1614610a53576000610a87565b610a5b61078c565b7fffffffffffffffffffffffffffffffffffffffffffffffffffffffffffffffff610a8691906129b9565b5b9050919050565b60008060008373ffffffffffffffffffffffffffffffffffffffff1673ffffffffffffffffffffffffffffffffffffffff168152602001908152602001600020549050919050565b610ade6112d8565b610ae860006114cb565b565b610afc82610af661107e565b83611098565b610b0682826113c2565b5050565b662386f26fc1000081565b6000610b2082611591565b9050919050565b610b2f6112d8565b610b376115da565b565b600060608060008060006060610b4d61163d565b610b55611678565b46306000801b600067ffffffffffffffff811115610b7657610b756129ed565b5b604051908082528060200260200182016040528015610ba45781602001602082028036833780820191505090505b507f0f00000000000000000000000000000000000000000000000000000000000000959493929190965096509650965096509650965090919293949596565b6000600560019054906101000a900473ffffffffffffffffffffffffffffffffffffffff16905090565b606060048054610c1c9061283a565b80601f0160208091040260200160405190810160405280929190818152602001828054610c489061283a565b8015610c955780601f10610c6a57610100808354040283529160200191610c95565b820191906000526020600020905b815481529060010190602001808311610c7857829003601f168201915b5050505050905090565b600080610caa61107e565b9050610cb781858561112d565b600191505092915050565b610ccc3382611444565b50565b600081600080610cef83662386f26fc100006116b390919063ffffffff16565b9150915081610d33576040517f08c379a0000000000000000000000000000000000000000000000000000000008152600401610d2a90612a68565b60405180910390fd5b662386f26fc10000811015610d7d576040517f08c379a0000000000000000000000000000000000000000000000000000000008152600401610d7490612ad4565b60405180910390fd5b84662386f26fc10000610d909190612af4565b9350505050919050565b83421115610ddf57836040517f62791302000000000000000000000000000000000000000000000000000000008152600401610dd691906122cc565b60405180910390fd5b60007f6e71edae12b1b97f4d1f60370fef10105fa2faae0126114a169c64845d6126c9888888610e0e8c611706565b89604051602001610e2496959493929190612b36565b6040516020818303038152906040528051906020012090506000610e478261175d565b90506000610e5782878787611777565b90508973ffffffffffffffffffffffffffffffffffffffff168173ffffffffffffffffffffffffffffffffffffffff1614610ecb57808a6040517f4b800e46000000000000000000000000000000000000000000000000000000008152600401610ec2929190612b97565b60405180910390fd5b610ed68a8a8a611086565b50505050505050505050565b662386f26fc1000081565b60003073ffffffffffffffffffffffffffffffffffffffff168373ffffffffffffffffffffffffffffffffffffffff1614610f5f57826040517fb5a7db92000000000000000000000000000000000000000000000000000000008152600401610f5691906126b6565b60405180910390fd5b610f6983836117a7565b905092915050565b6000600160008473ffffffffffffffffffffffffffffffffffffffff1673ffffffffffffffffffffffffffffffffffffffff16815260200190815260200160002060008373ffffffffffffffffffffffffffffffffffffffff1673ffffffffffffffffffffffffffffffffffffffff16815260200190815260200160002054905092915050565b6110006112d8565b600073ffffffffffffffffffffffffffffffffffffffff168173ffffffffffffffffffffffffffffffffffffffff16036110725760006040517f1e4fbdf700000000000000000000000000000000000000000000000000000000815260040161106991906126b6565b60405180910390fd5b61107b816114cb565b50565b600033905090565b61109383838360016117af565b505050565b60006110a48484610f71565b90507fffffffffffffffffffffffffffffffffffffffffffffffffffffffffffffffff8110156111275781811015611117578281836040517ffb8f41b200000000000000000000000000000000000000000000000000000000815260040161110e93929190612bc0565b60405180910390fd5b611126848484840360006117af565b5b50505050565b600073ffffffffffffffffffffffffffffffffffffffff168373ffffffffffffffffffffffffffffffffffffffff160361119f5760006040517f96c6fd1e00000000000000000000000000000000000000000000000000000000815260040161119691906126b6565b60405180910390fd5b600073ffffffffffffffffffffffffffffffffffffffff168273ffffffffffffffffffffffffffffffffffffffff16036112115760006040517fec442f0500000000000000000000000000000000000000000000000000000000815260040161120891906126b6565b60405180910390fd5b61121c838383611986565b505050565b60007f000000000000000000000000000000000000000000000000000000000000000073ffffffffffffffffffffffffffffffffffffffff163073ffffffffffffffffffffffffffffffffffffffff1614801561129d57507f000000000000000000000000000000000000000000000000000000000000000046145b156112ca577f000000000000000000000000000000000000000000000000000000000000000090506112d5565b6112d2611996565b90505b90565b6112e061107e565b73ffffffffffffffffffffffffffffffffffffffff166112fe610be3565b73ffffffffffffffffffffffffffffffffffffffff161461135d5761132161107e565b6040517f118cdaa700000000000000000000000000000000000000000000000000000000815260040161135491906126b6565b60405180910390fd5b565b611367611a2c565b6000600560006101000a81548160ff0219169083151502179055507f5db9ee0a495bf2e6ff9c91a7834c1ba4fdd244a5e8aa4e537bd38aeae4b073aa6113ab61107e565b6040516113b891906126b6565b60405180910390a1565b600073ffffffffffffffffffffffffffffffffffffffff168273ffffffffffffffffffffffffffffffffffffffff16036114345760006040517f96c6fd1e00000000000000000000000000000000000000000000000000000000815260040161142b91906126b6565b60405180910390fd5b61144082600083611986565b5050565b600073ffffffffffffffffffffffffffffffffffffffff168273ffffffffffffffffffffffffffffffffffffffff16036114b65760006040517fec442f050000000000000000000000000000000000000000000000000000000081526004016114ad91906126b6565b60405180910390fd5b6114c260008383611986565b5050565b600090565b6000600560019054906101000a900473ffffffffffffffffffffffffffffffffffffffff16905081600560016101000a81548173ffffffffffffffffffffffffffffffffffffffff021916908373ffffffffffffffffffffffffffffffffffffffff1602179055508173ffffffffffffffffffffffffffffffffffffffff168173ffffffffffffffffffffffffffffffffffffffff167f8be0079c531659141344cd1fd0a4f28419497f9722a3daafe3b4186f6b6457e060405160405180910390a35050565b6000600860008373ffffffffffffffffffffffffffffffffffffffff1673ffffffffffffffffffffffffffffffffffffffff168152602001908152602001600020549050919050565b6115e2611a6c565b6001600560006101000a81548160ff0219169083151502179055507f62e78cea01bee320cd4e420270b5ea74000d11b0c9f74754ebdbfc544b05a25861162661107e565b60405161163391906126b6565b60405180910390a1565b606061167360067f0000000000000000000000000000000000000000000000000000000000000000611aad90919063ffffffff16565b905090565b60606116ae60077f0000000000000000000000000000000000000000000000000000000000000000611aad90919063ffffffff16565b905090565b600080600084036116cb5760016000915091506116ff565b60008385029050838582816116e3576116e2612bf7565b5b04146116f65760008092509250506116ff565b60018192509250505b9250929050565b6000600860008373ffffffffffffffffffffffffffffffffffffffff1673ffffffffffffffffffffffffffffffffffffffff1681526020019081526020016000206000815480929190600101919050559050919050565b600061177061176a611221565b83611b5d565b9050919050565b60008060008061178988888888611b9e565b9250925092506117998282611c92565b829350505050949350505050565b600092915050565b600073ffffffffffffffffffffffffffffffffffffffff168473ffffffffffffffffffffffffffffffffffffffff16036118215760006040517fe602df0500000000000000000000000000000000000000000000000000000000815260040161181891906126b6565b60405180910390fd5b600073ffffffffffffffffffffffffffffffffffffffff168373ffffffffffffffffffffffffffffffffffffffff16036118935760006040517f94280d6200000000000000000000000000000000000000000000000000000000815260040161188a91906126b6565b60405180910390fd5b81600160008673ffffffffffffffffffffffffffffffffffffffff1673ffffffffffffffffffffffffffffffffffffffff16815260200190815260200160002060008573ffffffffffffffffffffffffffffffffffffffff1673ffffffffffffffffffffffffffffffffffffffff168152602001908152602001600020819055508015611980578273ffffffffffffffffffffffffffffffffffffffff168473ffffffffffffffffffffffffffffffffffffffff167f8c5be1e5ebec7d5bd14f71427d1e84f3dd0314c0f7b2291e5b200ac8c7c3b9258460405161197791906122cc565b60405180910390a35b50505050565b611991838383611df6565b505050565b60007f8b73c3c69bb8fe3d512ecc4cf759cc79239f7b179b0ffacaa9a75d522b39400f7f00000000000000000000000000000000000000000000000000000000000000007f00000000000000000000000000000000000000000000000000000000000000004630604051602001611a11959493929190612c26565b60405160208183030381529060405280519060200120905090565b611a34610803565b611a6a576040517f8dfc202b00000000000000000000000000000000000000000000000000000000815260040160405180910390fd5b565b611a74610803565b15611aab576040517fd93c066500000000000000000000000000000000000000000000000000000000815260040160405180910390fd5b565b606060ff60001b8314611aca57611ac383611e0e565b9050611b57565b818054611ad69061283a565b80601f0160208091040260200160405190810160405280929190818152602001828054611b029061283a565b8015611b4f5780601f10611b2457610100808354040283529160200191611b4f565b820191906000526020600020905b815481529060010190602001808311611b3257829003601f168201915b505050505090505b92915050565b60006040517f190100000000000000000000000000000000000000000000000000000000000081528360028201528260228201526042812091505092915050565b60008060007f7fffffffffffffffffffffffffffffff5d576e7357a4501ddfe92f46681b20a08460001c1115611bde576000600385925092509250611c88565b600060018888888860405160008152602001604052604051611c039493929190612c79565b6020604051602081039080840390855afa158015611c25573d6000803e3d6000fd5b505050602060405103519050600073ffffffffffffffffffffffffffffffffffffffff168173ffffffffffffffffffffffffffffffffffffffff1603611c7957600060016000801b93509350935050611c88565b8060008060001b935093509350505b9450945094915050565b60006003811115611ca657611ca5612cbe565b5b826003811115611cb957611cb8612cbe565b5b0315611df25760016003811115611cd357611cd2612cbe565b5b826003811115611ce657611ce5612cbe565b5b03611d1d576040517ff645eedf00000000000000000000000000000000000000000000000000000000815260040160405180910390fd5b60026003811115611d3157611d30612cbe565b5b826003811115611d4457611d43612cbe565b5b03611d89578060001c6040517ffce698f7000000000000000000000000000000000000000000000000000000008152600401611d8091906122cc565b60405180910390fd5b600380811115611d9c57611d9b612cbe565b5b826003811115611daf57611dae612cbe565b5b03611df157806040517fd78bce0c000000000000000000000000000000000000000000000000000000008152600401611de8919061238a565b60405180910390fd5b5b5050565b611dfe611a6c565b611e09838383611e82565b505050565b60606000611e1b836120a7565b90506000602067ffffffffffffffff811115611e3a57611e396129ed565b5b6040519080825280601f01601f191660200182016040528015611e6c5781602001600182028036833780820191505090505b5090508181528360208201528092505050919050565b600073ffffffffffffffffffffffffffffffffffffffff168373ffffffffffffffffffffffffffffffffffffffff1603611ed4578060026000828254611ec89190612985565b92505081905550611fa7565b60008060008573ffffffffffffffffffffffffffffffffffffffff1673ffffffffffffffffffffffffffffffffffffffff16815260200190815260200160002054905081811015611f60578381836040517fe450d38c000000000000000000000000000000000000000000000000000000008152600401611f5793929190612bc0565b60405180910390fd5b8181036000808673ffffffffffffffffffffffffffffffffffffffff1673ffffffffffffffffffffffffffffffffffffffff16815260200190815260200160002081905550505b600073ffffffffffffffffffffffffffffffffffffffff168273ffffffffffffffffffffffffffffffffffffffff1603611ff0578060026000828254039250508190555061203d565b806000808473ffffffffffffffffffffffffffffffffffffffff1673ffffffffffffffffffffffffffffffffffffffff168152602001908152602001600020600082825401925050819055505b8173ffffffffffffffffffffffffffffffffffffffff168373ffffffffffffffffffffffffffffffffffffffff167fddf252ad1be2c89b69c2b068fc378daa952ba7f163c4a11628f55a4df523b3ef8360405161209a91906122cc565b60405180910390a3505050565b60008060ff8360001c169050601f8111156120ee576040517fb3512b0c00000000000000000000000000000000000000000000000000000000815260040160405180910390fd5b80915050919050565b600081519050919050565b600082825260208201905092915050565b60005b83811015612131578082015181840152602081019050612116565b60008484015250505050565b6000601f19601f8301169050919050565b6000612159826120f7565b6121638185612102565b9350612173818560208601612113565b61217c8161213d565b840191505092915050565b600060208201905081810360008301526121a1818461214e565b905092915050565b600080fd5b600080fd5b600073ffffffffffffffffffffffffffffffffffffffff82169050919050565b60006121de826121b3565b9050919050565b6121ee816121d3565b81146121f957600080fd5b50565b60008135905061220b816121e5565b92915050565b6000819050919050565b61222481612211565b811461222f57600080fd5b50565b6000813590506122418161221b565b92915050565b6000806040838503121561225e5761225d6121a9565b5b600061226c858286016121fc565b925050602061227d85828601612232565b9150509250929050565b60008115159050919050565b61229c81612287565b82525050565b60006020820190506122b76000830184612293565b92915050565b6122c681612211565b82525050565b60006020820190506122e160008301846122bd565b92915050565b600080600060608486031215612300576122ff6121a9565b5b600061230e868287016121fc565b935050602061231f868287016121fc565b925050604061233086828701612232565b9150509250925092565b600060ff82169050919050565b6123508161233a565b82525050565b600060208201905061236b6000830184612347565b92915050565b6000819050919050565b61238481612371565b82525050565b600060208201905061239f600083018461237b565b92915050565b6000602082840312156123bb576123ba6121a9565b5b60006123c984828501612232565b91505092915050565b60006123dd826121d3565b9050919050565b6123ed816123d2565b81146123f857600080fd5b50565b60008135905061240a816123e4565b92915050565b600080fd5b600080fd5b600080fd5b60008083601f84011261243557612434612410565b5b8235905067ffffffffffffffff81111561245257612451612415565b5b60208301915083600182028301111561246e5761246d61241a565b5b9250929050565b600080600080600060808688031215612491576124906121a9565b5b600061249f888289016123fb565b95505060206124b0888289016121fc565b94505060406124c188828901612232565b935050606086013567ffffffffffffffff8111156124e2576124e16121ae565b5b6124ee8882890161241f565b92509250509295509295909350565b600060208284031215612513576125126121a9565b5b6000612521848285016121fc565b91505092915050565b60007fff0000000000000000000000000000000000000000000000000000000000000082169050919050565b61255f8161252a565b82525050565b61256e816121d3565b82525050565b600081519050919050565b600082825260208201905092915050565b6000819050602082019050919050565b6125a981612211565b82525050565b60006125bb83836125a0565b60208301905092915050565b6000602082019050919050565b60006125df82612574565b6125e9818561257f565b93506125f483612590565b8060005b8381101561262557815161260c88826125af565b9750612617836125c7565b9250506001810190506125f8565b5085935050505092915050565b600060e082019050612647600083018a612556565b8181036020830152612659818961214e565b9050818103604083015261266d818861214e565b905061267c60608301876122bd565b6126896080830186612565565b61269660a083018561237b565b81810360c08301526126a881846125d4565b905098975050505050505050565b60006020820190506126cb6000830184612565565b92915050565b6126da8161233a565b81146126e557600080fd5b50565b6000813590506126f7816126d1565b92915050565b61270681612371565b811461271157600080fd5b50565b600081359050612723816126fd565b92915050565b600080600080600080600060e0888a031215612748576127476121a9565b5b60006127568a828b016121fc565b97505060206127678a828b016121fc565b96505060406127788a828b01612232565b95505060606127898a828b01612232565b945050608061279a8a828b016126e8565b93505060a06127ab8a828b01612714565b92505060c06127bc8a828b01612714565b91505092959891949750929550565b600080604083850312156127e2576127e16121a9565b5b60006127f0858286016121fc565b9250506020612801858286016121fc565b9150509250929050565b7f4e487b7100000000000000000000000000000000000000000000000000000000600052602260045260246000fd5b6000600282049050600182168061285257607f821691505b6020821081036128655761286461280b565b5b50919050565b600082825260208201905092915050565b82818337600083830152505050565b6000612897838561286b565b93506128a483858461287c565b6128ad8361213d565b840190509392505050565b600060a0820190506128cd6000830189612565565b6128da6020830188612565565b6128e760408301876122bd565b6128f460608301866122bd565b818103608083015261290781848661288b565b9050979650505050505050565b600081519050612923816126fd565b92915050565b60006020828403121561293f5761293e6121a9565b5b600061294d84828501612914565b91505092915050565b7f4e487b7100000000000000000000000000000000000000000000000000000000600052601160045260246000fd5b600061299082612211565b915061299b83612211565b92508282019050808211156129b3576129b2612956565b5b92915050565b60006129c482612211565b91506129cf83612211565b92508282039050818111156129e7576129e6612956565b5b92915050565b7f4e487b7100000000000000000000000000000000000000000000000000000000600052604160045260246000fd5b7f6574684e756d626572206f766572666c6f770000000000000000000000000000600082015250565b6000612a52601283612102565b9150612a5d82612a1c565b602082019050919050565b60006020820190508181036000830152612a8181612a45565b9050919050565b7f65746820746f6f20736d616c6c00000000000000000000000000000000000000600082015250565b6000612abe600d83612102565b9150612ac982612a88565b602082019050919050565b60006020820190508181036000830152612aed81612ab1565b9050919050565b6000612aff82612211565b9150612b0a83612211565b9250828202612b1881612211565b91508282048414831517612b2f57612b2e612956565b5b5092915050565b600060c082019050612b4b600083018961237b565b612b586020830188612565565b612b656040830187612565565b612b7260608301866122bd565b612b7f60808301856122bd565b612b8c60a08301846122bd565b979650505050505050565b6000604082019050612bac6000830185612565565b612bb96020830184612565565b9392505050565b6000606082019050612bd56000830186612565565b612be260208301856122bd565b612bef60408301846122bd565b949350505050565b7f4e487b7100000000000000000000000000000000000000000000000000000000600052601260045260246000fd5b600060a082019050612c3b600083018861237b565b612c48602083018761237b565b612c55604083018661237b565b612c6260608301856122bd565b612c6f6080830184612565565b9695505050505050565b6000608082019050612c8e600083018761237b565b612c9b6020830186612347565b612ca8604083018561237b565b612cb5606083018461237b565b95945050505050565b7f4e487b7100000000000000000000000000000000000000000000000000000000600052602160045260246000fdfea26469706673582212203e3a48bbb8753e80ec7acd2288ff3cd18b96febb1e0127e8024a5dd2084f24a764736f6c634300081c0033",
  "devdoc": {
    "errors": {
      "ECDSAInvalidSignature()": [
        {
          "details": "The signature derives the `address(0)`."
        }
      ],
      "ECDSAInvalidSignatureLength(uint256)": [
        {
          "details": "The signature has an invalid length."
        }
      ],
      "ECDSAInvalidSignatureS(bytes32)": [
        {
          "details": "The signature has an S value that is in the upper half order."
        }
      ],
      "ERC20InsufficientAllowance(address,uint256,uint256)": [
        {
          "details": "Indicates a failure with the `spender`s `allowance`. Used in transfers.",
          "params": {
            "allowance": "Amount of tokens a `spender` is allowed to operate with.",
            "needed": "Minimum amount required to perform a transfer.",
            "spender": "Address that may be allowed to operate on tokens without being their owner."
          }
        }
      ],
      "ERC20InsufficientBalance(address,uint256,uint256)": [
        {
          "details": "Indicates an error related to the current `balance` of a `sender`. Used in transfers.",
          "params": {
            "balance": "Current balance for the interacting account.",
            "needed": "Minimum amount required to perform a transfer.",
            "sender": "Address whose tokens are being transferred."
          }
        }
      ],
      "ERC20InvalidApprover(address)": [
        {
          "details": "Indicates a failure with the `approver` of a token to be approved. Used in approvals.",
          "params": {
            "approver": "Address initiating an approval operation."
          }
        }
      ],
      "ERC20InvalidReceiver(address)": [
        {
          "details": "Indicates a failure with the token `receiver`. Used in transfers.",
          "params": {
            "receiver": "Address to which tokens are being transferred."
          }
        }
      ],
      "ERC20InvalidSender(address)": [
        {
          "details": "Indicates a failure with the token `sender`. Used in transfers.",
          "params": {
            "sender": "Address whose tokens are being transferred."
          }
        }
      ],
      "ERC20InvalidSpender(address)": [
        {
          "details": "Indicates a failure with the `spender` to be approved. Used in approvals.",
          "params": {
            "spender": "Address that may be allowed to operate on tokens without being their owner."
          }
        }
      ],
      "ERC2612ExpiredSignature(uint256)": [
        {
          "details": "Permit deadline has expired."
        }
      ],
      "ERC2612InvalidSigner(address,address)": [
        {
          "details": "Mismatched signature."
        }
      ],
      "ERC3156ExceededMaxLoan(uint256)": [
        {
          "details": "The requested loan exceeds the max loan value for `token`."
        }
      ],
      "ERC3156InvalidReceiver(address)": [
        {
          "details": "The receiver of a flashloan is not a valid {IERC3156FlashBorrower-onFlashLoan} implementer."
        }
      ],
      "ERC3156UnsupportedToken(address)": [
        {
          "details": "The loan token is not valid."
        }
      ],
      "EnforcedPause()": [
        {
          "details": "The operation failed because the contract is paused."
        }
      ],
      "ExpectedPause()": [
        {
          "details": "The operation failed because the contract is not paused."
        }
      ],
      "InvalidAccountNonce(address,uint256)": [
        {
          "details": "The nonce used for an `account` is not the expected current nonce."
        }
      ],
      "OwnableInvalidOwner(address)": [
        {
          "details": "The owner is not a valid owner account. (eg. `address(0)`)"
        }
      ],
      "OwnableUnauthorizedAccount(address)": [
        {
          "details": "The caller account is not authorized to perform an operation."
        }
      ]
    },
    "events": {
      "Approval(address,address,uint256)": {
        "details": "Emitted when the allowance of a `spender` for an `owner` is set by a call to {approve}. `value` is the new allowance."
      },
      "EIP712DomainChanged()": {
        "details": "MAY be emitted to signal that the domain could have changed."
      },
      "Paused(address)": {
        "details": "Emitted when the pause is triggered by `account`."
      },
      "Transfer(address,address,uint256)": {
        "details": "Emitted when `value` tokens are moved from one account (`from`) to another (`to`). Note that `value` may be zero."
      },
      "Unpaused(address)": {
        "details": "Emitted when the pause is lifted by `account`."
      }
    },
    "kind": "dev",
    "methods": {
      "DOMAIN_SEPARATOR()": {
        "details": "Returns the domain separator used in the encoding of the signature for {permit}, as defined by {EIP712}."
      },
      "allowance(address,address)": {
        "details": "See {IERC20-allowance}."
      },
      "approve(address,uint256)": {
        "details": "See {IERC20-approve}. NOTE: If `value` is the maximum `uint256`, the allowance is not updated on `transferFrom`. This is semantically equivalent to an infinite approval. Requirements: - `spender` cannot be the zero address."
      },
      "balanceOf(address)": {
        "details": "See {IERC20-balanceOf}."
      },
      "burn(uint256)": {
        "details": "Destroys a `value` amount of tokens from the caller. See {ERC20-_burn}."
      },
      "burnFrom(address,uint256)": {
        "details": "Destroys a `value` amount of tokens from `account`, deducting from the caller's allowance. See {ERC20-_burn} and {ERC20-allowance}. Requirements: - the caller must have allowance for ``accounts``'s tokens of at least `value`."
      },
      "decimals()": {
        "details": "Returns the number of decimals used to get its user representation. For example, if `decimals` equals `2`, a balance of `505` tokens should be displayed to a user as `5.05` (`505 / 10 ** 2`). Tokens usually opt for a value of 18, imitating the relationship between Ether and Wei. This is the default value returned by this function, unless it's overridden. NOTE: This information is only used for _display_ purposes: it in no way affects any of the arithmetic of the contract, including {IERC20-balanceOf} and {IERC20-transfer}."
      },
      "eip712Domain()": {
        "details": "See {IERC-5267}."
      },
      "flashFee(address,uint256)": {
        "details": "Returns the fee applied when doing flash loans. This function calls the {_flashFee} function which returns the fee applied when doing flash loans.",
        "params": {
          "token": "The token to be flash loaned.",
          "value": "The amount of tokens to be loaned."
        },
        "returns": {
          "_0": "The fees applied to the corresponding flash loan."
        }
      },
      "flashLoan(address,address,uint256,bytes)": {
        "details": "Performs a flash loan. New tokens are minted and sent to the `receiver`, who is required to implement the {IERC3156FlashBorrower} interface. By the end of the flash loan, the receiver is expected to own value + fee tokens and have them approved back to the token contract itself so they can be burned.",
        "params": {
          "data": "An arbitrary datafield that is passed to the receiver.",
          "receiver": "The receiver of the flash loan. Should implement the {IERC3156FlashBorrower-onFlashLoan} interface.",
          "token": "The token to be flash loaned. Only `address(this)` is supported.",
          "value": "The amount of tokens to be loaned."
        },
        "returns": {
          "_0": "`true` if the flash loan was successful."
        }
      },
      "maxFlashLoan(address)": {
        "details": "Returns the maximum amount of tokens available for loan.",
        "params": {
          "token": "The address of the token that is requested."
        },
        "returns": {
          "_0": "The amount of token that can be loaned. NOTE: This function does not consider any form of supply cap, so in case it's used in a token with a cap like {ERC20Capped}, make sure to override this function to integrate the cap instead of `type(uint256).max`."
        }
      },
      "name()": {
        "details": "Returns the name of the token."
      },
      "nonces(address)": {
        "details": "Returns the current nonce for `owner`. This value must be included whenever a signature is generated for {permit}. Every successful call to {permit} increases ``owner``'s nonce by one. This prevents a signature from being used multiple times."
      },
      "owner()": {
        "details": "Returns the address of the current owner."
      },
      "paused()": {
        "details": "Returns true if the contract is paused, and false otherwise."
      },
      "permit(address,address,uint256,uint256,uint8,bytes32,bytes32)": {
        "details": "Sets `value` as the allowance of `spender` over ``owner``'s tokens, given ``owner``'s signed approval. IMPORTANT: The same issues {IERC20-approve} has related to transaction ordering also apply here. Emits an {Approval} event. Requirements: - `spender` cannot be the zero address. - `deadline` must be a timestamp in the future. - `v`, `r` and `s` must be a valid `secp256k1` signature from `owner` over the EIP712-formatted function arguments. - the signature must use ``owner``'s current nonce (see {nonces}). For more information on the signature format, see the https://eips.ethereum.org/EIPS/eip-2612#specification[relevant EIP section]. CAUTION: See Security Considerations above."
      },
      "renounceOwnership()": {
        "details": "Leaves the contract without owner. It will not be possible to call `onlyOwner` functions. Can only be called by the current owner. NOTE: Renouncing ownership will leave the contract without an owner, thereby disabling any functionality that is only available to the owner."
      },
      "symbol()": {
        "details": "Returns the symbol of the token, usually a shorter version of the name."
      },
      "totalSupply()": {
        "details": "See {IERC20-totalSupply}."
      },
      "transfer(address,uint256)": {
        "details": "See {IERC20-transfer}. Requirements: - `to` cannot be the zero address. - the caller must have a balance of at least `value`."
      },
      "transferFrom(address,address,uint256)": {
        "details": "See {IERC20-transferFrom}. Skips emitting an {Approval} event indicating an allowance update. This is not required by the ERC. See {xref-ERC20-_approve-address-address-uint256-bool-}[_approve]. NOTE: Does not update the allowance if the current allowance is the maximum `uint256`. Requirements: - `from` and `to` cannot be the zero address. - `from` must have a balance of at least `value`. - the caller must have allowance for ``from``'s tokens of at least `value`."
      },
      "transferOwnership(address)": {
        "details": "Transfers ownership of the contract to a new account (`newOwner`). Can only be called by the current owner."
      }
    },
    "version": 1
  },
  "userdoc": {
    "kind": "user",
    "methods": {},
    "version": 1
  },
  "storageLayout": {
    "storage": [
      {
        "astId": 391,
        "contract": "contracts/MyToken.sol:MyToken",
        "label": "_balances",
        "offset": 0,
        "slot": "0",
        "type": "t_mapping(t_address,t_uint256)"
      },
      {
        "astId": 397,
        "contract": "contracts/MyToken.sol:MyToken",
        "label": "_allowances",
        "offset": 0,
        "slot": "1",
        "type": "t_mapping(t_address,t_mapping(t_address,t_uint256))"
      },
      {
        "astId": 399,
        "contract": "contracts/MyToken.sol:MyToken",
        "label": "_totalSupply",
        "offset": 0,
        "slot": "2",
        "type": "t_uint256"
      },
      {
        "astId": 401,
        "contract": "contracts/MyToken.sol:MyToken",
        "label": "_name",
        "offset": 0,
        "slot": "3",
        "type": "t_string_storage"
      },
      {
        "astId": 403,
        "contract": "contracts/MyToken.sol:MyToken",
        "label": "_symbol",
        "offset": 0,
        "slot": "4",
        "type": "t_string_storage"
      },
      {
        "astId": 1660,
        "contract": "contracts/MyToken.sol:MyToken",
        "label": "_paused",
        "offset": 0,
        "slot": "5",
        "type": "t_bool"
      },
      {
        "astId": 8,
        "contract": "contracts/MyToken.sol:MyToken",
        "label": "_owner",
        "offset": 1,
        "slot": "5",
        "type": "t_address"
      },
      {
        "astId": 3694,
        "contract": "contracts/MyToken.sol:MyToken",
        "label": "_nameFallback",
        "offset": 0,
        "slot": "6",
        "type": "t_string_storage"
      },
      {
        "astId": 3696,
        "contract": "contracts/MyToken.sol:MyToken",
        "label": "_versionFallback",
        "offset": 0,
        "slot": "7",
        "type": "t_string_storage"
      },
      {
        "astId": 1545,
        "contract": "contracts/MyToken.sol:MyToken",
        "label": "_nonces",
        "offset": 0,
        "slot": "8",
        "type": "t_mapping(t_address,t_uint256)"
      }
    ],
    "types": {
      "t_address": {
        "encoding": "inplace",
        "label": "address",
        "numberOfBytes": "20"
      },
      "t_bool": {
        "encoding": "inplace",
        "label": "bool",
        "numberOfBytes": "1"
      },
      "t_mapping(t_address,t_mapping(t_address,t_uint256))": {
        "encoding": "mapping",
        "key": "t_address",
        "label": "mapping(address => mapping(address => uint256))",
        "numberOfBytes": "32",
        "value": "t_mapping(t_address,t_uint256)"
      },
      "t_mapping(t_address,t_uint256)": {
        "encoding": "mapping",
        "key": "t_address",
        "label": "mapping(address => uint256)",
        "numberOfBytes": "32",
        "value": "t_uint256"
      },
      "t_string_storage": {
        "encoding": "bytes",
        "label": "string",
        "numberOfBytes": "32"
      },
      "t_uint256": {
        "encoding": "inplace",
        "label": "uint256",
        "numberOfBytes": "32"
      }
    }
  }
}